{"abi":[{"type":"constructor","inputs":[],"stateMutability":"nonpayable"},{"type":"function","name":"MAX_SUPPLY","inputs":[],"outputs":[{"name":"","type":"uint256","internalType":"uint256"}],"stateMutability":"view"},{"type":"function","name":"allowance","inputs":[{"name":"owner","type":"address","internalType":"address"},{"name":"spender","type":"address","internalType":"address"}],"outputs":[{"name":"","type":"uint256","internalType":"uint256"}],"stateMutability":"view"},{"type":"function","name":"approve","inputs":[{"name":"spender","type":"address","internalType":"address"},{"name":"amount","type":"uint256","internalType":"uint256"}],"outputs":[{"name":"","type":"bool","internalType":"bool"}],"stateMutability":"nonpayable"},{"type":"function","name":"balanceOf","inputs":[{"name":"account","type":"address","internalType":"address"}],"outputs":[{"name":"","type":"uint256","internalType":"uint256"}],"stateMutability":"view"},{"type":"function","name":"decimals","inputs":[],"outputs":[{"name":"","type":"uint8","internalType":"uint8"}],"stateMutability":"view"},{"type":"function","name":"decreaseAllowance","inputs":[{"name":"spender","type":"address","internalType":"address"},{"name":"subtractedValue","type":"uint256","internalType":"uint256"}],"outputs":[{"name":"","type":"bool","internalType":"bool"}],"stateMutability":"nonpayable"},{"type":"function","name":"increaseAllowance","inputs":[{"name":"spender","type":"address","internalType":"address"},{"name":"addedValue","type":"uint256","internalType":"uint256"}],"outputs":[{"name":"","type":"bool","internalType":"bool"}],"stateMutability":"nonpayable"},{"type":"function","name":"mint","inputs":[{"name":"to","type":"address","internalType":"address"},{"name":"amount","type":"uint256","internalType":"uint256"}],"outputs":[],"stateMutability":"nonpayable"},{"type":"function","name":"name","inputs":[],"outputs":[{"name":"","type":"string","internalType":"string"}],"stateMutability":"view"},{"type":"function","name":"owner","inputs":[],"outputs":[{"name":"","type":"address","internalType":"address"}],"stateMutability":"view"},{"type":"function","name":"renounceOwnership","inputs":[],"outputs":[],"stateMutability":"nonpayable"},{"type":"function","name":"symbol","inputs":[],"outputs":[{"name":"","type":"string","internalType":"string"}],"stateMutability":"view"},{"type":"function","name":"totalSupply","inputs":[],"outputs":[{"name":"","type":"uint256","internalType":"uint256"}],"stateMutability":"view"},{"type":"function","name":"transfer","inputs":[{"name":"to","type":"address","internalType":"address"},{"name":"amount","type":"uint256","internalType":"uint256"}],"outputs":[{"name":"","type":"bool","internalType":"bool"}],"stateMutability":"nonpayable"},{"type":"function","name":"transferFrom","inputs":[{"name":"from","type":"address","internalType":"address"},{"name":"to","type":"address","internalType":"address"},{"name":"amount","type":"uint256","internalType":"uint256"}],"outputs":[{"name":"","type":"bool","internalType":"bool"}],"stateMutability":"nonpayable"},{"type":"function","name":"transferOwnership","inputs":[{"name":"newOwner","type":"address","internalType":"address"}],"outputs":[],"stateMutability":"nonpayable"},{"type":"event","name":"Approval","inputs":[{"name":"owner","type":"address","indexed":true,"internalType":"address"},{"name":"spender","type":"address","indexed":true,"internalType":"address"},{"name":"value","type":"uint256","indexed":false,"internalType":"uint256"}],"anonymous":false},{"type":"event","name":"OwnershipTransferred","inputs":[{"name":"previousOwner","type":"address","indexed":true,"internalType":"address"},{"name":"newOwner","type":"address","indexed":true,"internalType":"address"}],"anonymous":false},{"type":"event","name":"Transfer","inputs":[{"name":"from","type":"address","indexed":true,"internalType":"address"},{"name":"to","type":"address","indexed":true,"internalType":"address"},{"name":"value","type":"uint256","indexed":false,"internalType":"uint256"}],"anonymous":false}],"bytecode":{"object":"0x608060405234801561000f575f5ffd5b506040518060400160405280600f81526020017f5969656c644661726d20546f6b656e00000000000000000000000000000000008152506040518060400160405280600381526020017f5946540000000000000000000000000000000000000000000000000000000000815250816003908161008b9190610544565b50806004908161009b9190610544565b5050506100ba6100af6100d960201b60201c565b6100e060201b60201c565b6100d43369d3c21bcecceda10000006101a360201b60201c565b610713565b5f33905090565b5f60055f9054906101000a900473ffffffffffffffffffffffffffffffffffffffff1690508160055f6101000a81548173ffffffffffffffffffffffffffffffffffffffff021916908373ffffffffffffffffffffffffffffffffffffffff1602179055508173ffffffffffffffffffffffffffffffffffffffff168173ffffffffffffffffffffffffffffffffffffffff167f8be0079c531659141344cd1fd0a4f28419497f9722a3daafe3b4186f6b6457e060405160405180910390a35050565b5f73ffffffffffffffffffffffffffffffffffffffff168273ffffffffffffffffffffffffffffffffffffffff1603610211576040517f08c379a00000000000000000000000000000000000000000000000000000000081526004016102089061066d565b60405180910390fd5b6102225f83836102fd60201b60201c565b8060025f82825461023391906106b8565b92505081905550805f5f8473ffffffffffffffffffffffffffffffffffffffff1673ffffffffffffffffffffffffffffffffffffffff1681526020019081526020015f205f82825401925050819055508173ffffffffffffffffffffffffffffffffffffffff165f73ffffffffffffffffffffffffffffffffffffffff167fddf252ad1be2c89b69c2b068fc378daa952ba7f163c4a11628f55a4df523b3ef836040516102e091906106fa565b60405180910390a36102f95f838361030260201b60201c565b5050565b505050565b505050565b5f81519050919050565b7f4e487b71000000000000000000000000000000000000000000000000000000005f52604160045260245ffd5b7f4e487b71000000000000000000000000000000000000000000000000000000005f52602260045260245ffd5b5f600282049050600182168061038257607f821691505b6020821081036103955761039461033e565b5b50919050565b5f819050815f5260205f209050919050565b5f6020601f8301049050919050565b5f82821b905092915050565b5f600883026103f77fffffffffffffffffffffffffffffffffffffffffffffffffffffffffffffffff826103bc565b61040186836103bc565b95508019841693508086168417925050509392505050565b5f819050919050565b5f819050919050565b5f61044561044061043b84610419565b610422565b610419565b9050919050565b5f819050919050565b61045e8361042b565b61047261046a8261044c565b8484546103c8565b825550505050565b5f5f905090565b61048961047a565b610494818484610455565b505050565b5b818110156104b7576104ac5f82610481565b60018101905061049a565b5050565b601f8211156104fc576104cd8161039b565b6104d6846103ad565b810160208510156104e5578190505b6104f96104f1856103ad565b830182610499565b50505b505050565b5f82821c905092915050565b5f61051c5f1984600802610501565b1980831691505092915050565b5f610534838361050d565b9150826002028217905092915050565b61054d82610307565b67ffffffffffffffff81111561056657610565610311565b5b610570825461036b565b61057b8282856104bb565b5f60209050601f8311600181146105ac575f841561059a578287015190505b6105a48582610529565b86555061060b565b601f1984166105ba8661039b565b5f5b828110156105e1578489015182556001820191506020850194506020810190506105bc565b868310156105fe57848901516105fa601f89168261050d565b8355505b6001600288020188555050505b505050505050565b5f82825260208201905092915050565b7f45524332303a206d696e7420746f20746865207a65726f2061646472657373005f82015250565b5f610657601f83610613565b915061066282610623565b602082019050919050565b5f6020820190508181035f8301526106848161064b565b9050919050565b7f4e487b71000000000000000000000000000000000000000000000000000000005f52601160045260245ffd5b5f6106c282610419565b91506106cd83610419565b92508282019050808211156106e5576106e461068b565b5b92915050565b6106f481610419565b82525050565b5f60208201905061070d5f8301846106eb565b92915050565b61183b806107205f395ff3fe608060405234801561000f575f5ffd5b50600436106100fe575f3560e01c806370a0823111610095578063a457c2d711610064578063a457c2d71461029c578063a9059cbb146102cc578063dd62ed3e146102fc578063f2fde38b1461032c576100fe565b806370a0823114610226578063715018a6146102565780638da5cb5b1461026057806395d89b411461027e576100fe565b8063313ce567116100d1578063313ce5671461019e57806332cb6b0c146101bc57806339509351146101da57806340c10f191461020a576100fe565b806306fdde0314610102578063095ea7b31461012057806318160ddd1461015057806323b872dd1461016e575b5f5ffd5b61010a610348565b6040516101179190610f67565b60405180910390f35b61013a60048036038101906101359190611018565b6103d8565b6040516101479190611070565b60405180910390f35b6101586103fa565b6040516101659190611098565b60405180910390f35b610188600480360381019061018391906110b1565b610403565b6040516101959190611070565b60405180910390f35b6101a6610431565b6040516101b3919061111c565b60405180910390f35b6101c4610439565b6040516101d19190611098565b60405180910390f35b6101f460048036038101906101ef9190611018565b610447565b6040516102019190611070565b60405180910390f35b610224600480360381019061021f9190611018565b61047d565b005b610240600480360381019061023b9190611135565b6104f2565b60405161024d9190611098565b60405180910390f35b61025e610537565b005b61026861054a565b604051610275919061116f565b60405180910390f35b610286610572565b6040516102939190610f67565b60405180910390f35b6102b660048036038101906102b19190611018565b610602565b6040516102c39190611070565b60405180910390f35b6102e660048036038101906102e19190611018565b610677565b6040516102f39190611070565b60405180910390f35b61031660048036038101906103119190611188565b610699565b6040516103239190611098565b60405180910390f35b61034660048036038101906103419190611135565b61071b565b005b606060038054610357906111f3565b80601f0160208091040260200160405190810160405280929190818152602001828054610383906111f3565b80156103ce5780601f106103a5576101008083540402835291602001916103ce565b820191905f5260205f20905b8154815290600101906020018083116103b157829003601f168201915b5050505050905090565b5f5f6103e261079d565b90506103ef8185856107a4565b600191505092915050565b5f600254905090565b5f5f61040d61079d565b905061041a858285610967565b6104258585856109f2565b60019150509392505050565b5f6012905090565b69d3c21bcecceda100000081565b5f5f61045161079d565b90506104728185856104638589610699565b61046d9190611250565b6107a4565b600191505092915050565b610485610c5e565b69d3c21bcecceda1000000816104996103fa565b6104a39190611250565b11156104e4576040517f08c379a00000000000000000000000000000000000000000000000000000000081526004016104db906112cd565b60405180910390fd5b6104ee8282610cdc565b5050565b5f5f5f8373ffffffffffffffffffffffffffffffffffffffff1673ffffffffffffffffffffffffffffffffffffffff1681526020019081526020015f20549050919050565b61053f610c5e565b6105485f610e2a565b565b5f60055f9054906101000a900473ffffffffffffffffffffffffffffffffffffffff16905090565b606060048054610581906111f3565b80601f01602080910402602001604051908101604052809291908181526020018280546105ad906111f3565b80156105f85780601f106105cf576101008083540402835291602001916105f8565b820191905f5260205f20905b8154815290600101906020018083116105db57829003601f168201915b5050505050905090565b5f5f61060c61079d565b90505f6106198286610699565b90508381101561065e576040517f08c379a00000000000000000000000000000000000000000000000000000000081526004016106559061135b565b60405180910390fd5b61066b82868684036107a4565b60019250505092915050565b5f5f61068161079d565b905061068e8185856109f2565b600191505092915050565b5f60015f8473ffffffffffffffffffffffffffffffffffffffff1673ffffffffffffffffffffffffffffffffffffffff1681526020019081526020015f205f8373ffffffffffffffffffffffffffffffffffffffff1673ffffffffffffffffffffffffffffffffffffffff1681526020019081526020015f2054905092915050565b610723610c5e565b5f73ffffffffffffffffffffffffffffffffffffffff168173ffffffffffffffffffffffffffffffffffffffff1603610791576040517f08c379a0000000000000000000000000000000000000000000000000000000008152600401610788906113e9565b60405180910390fd5b61079a81610e2a565b50565b5f33905090565b5f73ffffffffffffffffffffffffffffffffffffffff168373ffffffffffffffffffffffffffffffffffffffff1603610812576040517f08c379a000000000000000000000000000000000000000000000000000000000815260040161080990611477565b60405180910390fd5b5f73ffffffffffffffffffffffffffffffffffffffff168273ffffffffffffffffffffffffffffffffffffffff1603610880576040517f08c379a000000000000000000000000000000000000000000000000000000000815260040161087790611505565b60405180910390fd5b8060015f8573ffffffffffffffffffffffffffffffffffffffff1673ffffffffffffffffffffffffffffffffffffffff1681526020019081526020015f205f8473ffffffffffffffffffffffffffffffffffffffff1673ffffffffffffffffffffffffffffffffffffffff1681526020019081526020015f20819055508173ffffffffffffffffffffffffffffffffffffffff168373ffffffffffffffffffffffffffffffffffffffff167f8c5be1e5ebec7d5bd14f71427d1e84f3dd0314c0f7b2291e5b200ac8c7c3b9258360405161095a9190611098565b60405180910390a3505050565b5f6109728484610699565b90507fffffffffffffffffffffffffffffffffffffffffffffffffffffffffffffffff81146109ec57818110156109de576040517f08c379a00000000000000000000000000000000000000000000000000000000081526004016109d59061156d565b60405180910390fd5b6109eb84848484036107a4565b5b50505050565b5f73ffffffffffffffffffffffffffffffffffffffff168373ffffffffffffffffffffffffffffffffffffffff1603610a60576040517f08c379a0000000000000000000000000000000000000000000000000000000008152600401610a57906115fb565b60405180910390fd5b5f73ffffffffffffffffffffffffffffffffffffffff168273ffffffffffffffffffffffffffffffffffffffff1603610ace576040517f08c379a0000000000000000000000000000000000000000000000000000000008152600401610ac590611689565b60405180910390fd5b610ad9838383610eed565b5f5f5f8573ffffffffffffffffffffffffffffffffffffffff1673ffffffffffffffffffffffffffffffffffffffff1681526020019081526020015f2054905081811015610b5c576040517f08c379a0000000000000000000000000000000000000000000000000000000008152600401610b5390611717565b60405180910390fd5b8181035f5f8673ffffffffffffffffffffffffffffffffffffffff1673ffffffffffffffffffffffffffffffffffffffff1681526020019081526020015f2081905550815f5f8573ffffffffffffffffffffffffffffffffffffffff1673ffffffffffffffffffffffffffffffffffffffff1681526020019081526020015f205f82825401925050819055508273ffffffffffffffffffffffffffffffffffffffff168473ffffffffffffffffffffffffffffffffffffffff167fddf252ad1be2c89b69c2b068fc378daa952ba7f163c4a11628f55a4df523b3ef84604051610c459190611098565b60405180910390a3610c58848484610ef2565b50505050565b610c6661079d565b73ffffffffffffffffffffffffffffffffffffffff16610c8461054a565b73ffffffffffffffffffffffffffffffffffffffff1614610cda576040517f08c379a0000000000000000000000000000000000000000000000000000000008152600401610cd19061177f565b60405180910390fd5b565b5f73ffffffffffffffffffffffffffffffffffffffff168273ffffffffffffffffffffffffffffffffffffffff1603610d4a576040517f08c379a0000000000000000000000000000000000000000000000000000000008152600401610d41906117e7565b60405180910390fd5b610d555f8383610eed565b8060025f828254610d669190611250565b92505081905550805f5f8473ffffffffffffffffffffffffffffffffffffffff1673ffffffffffffffffffffffffffffffffffffffff1681526020019081526020015f205f82825401925050819055508173ffffffffffffffffffffffffffffffffffffffff165f73ffffffffffffffffffffffffffffffffffffffff167fddf252ad1be2c89b69c2b068fc378daa952ba7f163c4a11628f55a4df523b3ef83604051610e139190611098565b60405180910390a3610e265f8383610ef2565b5050565b5f60055f9054906101000a900473ffffffffffffffffffffffffffffffffffffffff1690508160055f6101000a81548173ffffffffffffffffffffffffffffffffffffffff021916908373ffffffffffffffffffffffffffffffffffffffff1602179055508173ffffffffffffffffffffffffffffffffffffffff168173ffffffffffffffffffffffffffffffffffffffff167f8be0079c531659141344cd1fd0a4f28419497f9722a3daafe3b4186f6b6457e060405160405180910390a35050565b505050565b505050565b5f81519050919050565b5f82825260208201905092915050565b8281835e5f83830152505050565b5f601f19601f8301169050919050565b5f610f3982610ef7565b610f438185610f01565b9350610f53818560208601610f11565b610f5c81610f1f565b840191505092915050565b5f6020820190508181035f830152610f7f8184610f2f565b905092915050565b5f5ffd5b5f73ffffffffffffffffffffffffffffffffffffffff82169050919050565b5f610fb482610f8b565b9050919050565b610fc481610faa565b8114610fce575f5ffd5b50565b5f81359050610fdf81610fbb565b92915050565b5f819050919050565b610ff781610fe5565b8114611001575f5ffd5b50565b5f8135905061101281610fee565b92915050565b5f5f6040838503121561102e5761102d610f87565b5b5f61103b85828601610fd1565b925050602061104c85828601611004565b9150509250929050565b5f8115159050919050565b61106a81611056565b82525050565b5f6020820190506110835f830184611061565b92915050565b61109281610fe5565b82525050565b5f6020820190506110ab5f830184611089565b92915050565b5f5f5f606084860312156110c8576110c7610f87565b5b5f6110d586828701610fd1565b93505060206110e686828701610fd1565b92505060406110f786828701611004565b9150509250925092565b5f60ff82169050919050565b61111681611101565b82525050565b5f60208201905061112f5f83018461110d565b92915050565b5f6020828403121561114a57611149610f87565b5b5f61115784828501610fd1565b91505092915050565b61116981610faa565b82525050565b5f6020820190506111825f830184611160565b92915050565b5f5f6040838503121561119e5761119d610f87565b5b5f6111ab85828601610fd1565b92505060206111bc85828601610fd1565b9150509250929050565b7f4e487b71000000000000000000000000000000000000000000000000000000005f52602260045260245ffd5b5f600282049050600182168061120a57607f821691505b60208210810361121d5761121c6111c6565b5b50919050565b7f4e487b71000000000000000000000000000000000000000000000000000000005f52601160045260245ffd5b5f61125a82610fe5565b915061126583610fe5565b925082820190508082111561127d5761127c611223565b5b92915050565b7f45786365656473206d617820737570706c7900000000000000000000000000005f82015250565b5f6112b7601283610f01565b91506112c282611283565b602082019050919050565b5f6020820190508181035f8301526112e4816112ab565b9050919050565b7f45524332303a2064656372656173656420616c6c6f77616e63652062656c6f775f8201527f207a65726f000000000000000000000000000000000000000000000000000000602082015250565b5f611345602583610f01565b9150611350826112eb565b604082019050919050565b5f6020820190508181035f83015261137281611339565b9050919050565b7f4f776e61626c653a206e6577206f776e657220697320746865207a65726f20615f8201527f6464726573730000000000000000000000000000000000000000000000000000602082015250565b5f6113d3602683610f01565b91506113de82611379565b604082019050919050565b5f6020820190508181035f830152611400816113c7565b9050919050565b7f45524332303a20617070726f76652066726f6d20746865207a65726f206164645f8201527f7265737300000000000000000000000000000000000000000000000000000000602082015250565b5f611461602483610f01565b915061146c82611407565b604082019050919050565b5f6020820190508181035f83015261148e81611455565b9050919050565b7f45524332303a20617070726f766520746f20746865207a65726f2061646472655f8201527f7373000000000000000000000000000000000000000000000000000000000000602082015250565b5f6114ef602283610f01565b91506114fa82611495565b604082019050919050565b5f6020820190508181035f83015261151c816114e3565b9050919050565b7f45524332303a20696e73756666696369656e7420616c6c6f77616e63650000005f82015250565b5f611557601d83610f01565b915061156282611523565b602082019050919050565b5f6020820190508181035f8301526115848161154b565b9050919050565b7f45524332303a207472616e736665722066726f6d20746865207a65726f2061645f8201527f6472657373000000000000000000000000000000000000000000000000000000602082015250565b5f6115e5602583610f01565b91506115f08261158b565b604082019050919050565b5f6020820190508181035f830152611612816115d9565b9050919050565b7f45524332303a207472616e7366657220746f20746865207a65726f20616464725f8201527f6573730000000000000000000000000000000000000000000000000000000000602082015250565b5f611673602383610f01565b915061167e82611619565b604082019050919050565b5f6020820190508181035f8301526116a081611667565b9050919050565b7f45524332303a207472616e7366657220616d6f756e74206578636565647320625f8201527f616c616e63650000000000000000000000000000000000000000000000000000602082015250565b5f611701602683610f01565b915061170c826116a7565b604082019050919050565b5f6020820190508181035f83015261172e816116f5565b9050919050565b7f4f776e61626c653a2063616c6c6572206973206e6f7420746865206f776e65725f82015250565b5f611769602083610f01565b915061177482611735565b602082019050919050565b5f6020820190508181035f8301526117968161175d565b9050919050565b7f45524332303a206d696e7420746f20746865207a65726f2061646472657373005f82015250565b5f6117d1601f83610f01565b91506117dc8261179d565b602082019050919050565b5f6020820190508181035f8301526117fe816117c5565b905091905056fea264697066735822122031a39c9296e32d34a73970cdfb330cc60360cf03dc24f24d432689d5aa7a63cd64736f6c634300081e0033","linkReferences":{}},"methodIdentifiers":{"MAX_SUPPLY()":"32cb6b0c","allowance(address,address)":"dd62ed3e","approve(address,uint256)":"095ea7b3","balanceOf(address)":"70a08231","decimals()":"313ce567","decreaseAllowance(address,uint256)":"a457c2d7","increaseAllowance(address,uint256)":"39509351","mint(address,uint256)":"40c10f19","name()":"06fdde03","owner()":"8da5cb5b","renounceOwnership()":"715018a6","symbol()":"95d89b41","totalSupply()":"18160ddd","transfer(address,uint256)":"a9059cbb","transferFrom(address,address,uint256)":"23b872dd","transferOwnership(address)":"f2fde38b"},"id":32}