{"abi":[{"type":"constructor","inputs":[{"name":"_rewardToken","type":"address","internalType":"contract IERC20"},{"name":"_rewardPerBlock","type":"uint256","internalType":"uint256"},{"name":"_startBlock","type":"uint256","internalType":"uint256"},{"name":"_bonusEndBlock","type":"uint256","internalType":"uint256"}],"stateMutability":"nonpayable"},{"type":"function","name":"BONUS_MULTIPLIER","inputs":[],"outputs":[{"name":"","type":"uint256","internalType":"uint256"}],"stateMutability":"view"},{"type":"function","name":"addPool","inputs":[{"name":"_allocPoint","type":"uint256","internalType":"uint256"},{"name":"_lpToken","type":"address","internalType":"contract IERC20"},{"name":"_minStakeAmount","type":"uint256","internalType":"uint256"},{"name":"_maxStakeAmount","type":"uint256","internalType":"uint256"},{"name":"_withUpdate","type":"bool","internalType":"bool"}],"outputs":[],"stateMutability":"nonpayable"},{"type":"function","name":"bonusEndBlock","inputs":[],"outputs":[{"name":"","type":"uint256","internalType":"uint256"}],"stateMutability":"view"},{"type":"function","name":"deposit","inputs":[{"name":"_pid","type":"uint256","internalType":"uint256"},{"name":"_amount","type":"uint256","internalType":"uint256"}],"outputs":[],"stateMutability":"nonpayable"},{"type":"function","name":"emergencyWithdraw","inputs":[{"name":"_pid","type":"uint256","internalType":"uint256"}],"outputs":[],"stateMutability":"nonpayable"},{"type":"function","name":"getMultiplier","inputs":[{"name":"_from","type":"uint256","internalType":"uint256"},{"name":"_to","type":"uint256","internalType":"uint256"}],"outputs":[{"name":"","type":"uint256","internalType":"uint256"}],"stateMutability":"view"},{"type":"function","name":"getPoolInfo","inputs":[{"name":"_pid","type":"uint256","internalType":"uint256"}],"outputs":[{"name":"lpToken","type":"address","internalType":"address"},{"name":"allocPoint","type":"uint256","internalType":"uint256"},{"name":"lastRewardBlock","type":"uint256","internalType":"uint256"},{"name":"accTokenPerShare","type":"uint256","internalType":"uint256"},{"name":"totalStaked","type":"uint256","internalType":"uint256"},{"name":"minStakeAmount","type":"uint256","internalType":"uint256"},{"name":"maxStakeAmount","type":"uint256","internalType":"uint256"}],"stateMutability":"view"},{"type":"function","name":"getUserInfo","inputs":[{"name":"_pid","type":"uint256","internalType":"uint256"},{"name":"_user","type":"address","internalType":"address"}],"outputs":[{"name":"amount","type":"uint256","internalType":"uint256"},{"name":"rewardDebt","type":"uint256","internalType":"uint256"},{"name":"pendingRewards","type":"uint256","internalType":"uint256"},{"name":"lastStakeTime","type":"uint256","internalType":"uint256"}],"stateMutability":"view"},{"type":"function","name":"harvest","inputs":[{"name":"_pid","type":"uint256","internalType":"uint256"}],"outputs":[],"stateMutability":"nonpayable"},{"type":"function","name":"massUpdatePools","inputs":[],"outputs":[],"stateMutability":"nonpayable"},{"type":"function","name":"owner","inputs":[],"outputs":[{"name":"","type":"address","internalType":"address"}],"stateMutability":"view"},{"type":"function","name":"pause","inputs":[],"outputs":[],"stateMutability":"nonpayable"},{"type":"function","name":"paused","inputs":[],"outputs":[{"name":"","type":"bool","internalType":"bool"}],"stateMutability":"view"},{"type":"function","name":"pendingReward","inputs":[{"name":"_pid","type":"uint256","internalType":"uint256"},{"name":"_user","type":"address","internalType":"address"}],"outputs":[{"name":"","type":"uint256","internalType":"uint256"}],"stateMutability":"view"},{"type":"function","name":"poolInfo","inputs":[{"name":"","type":"uint256","internalType":"uint256"}],"outputs":[{"name":"lpToken","type":"address","internalType":"contract IERC20"},{"name":"allocPoint","type":"uint256","internalType":"uint256"},{"name":"lastRewardBlock","type":"uint256","internalType":"uint256"},{"name":"accTokenPerShare","type":"uint256","internalType":"uint256"},{"name":"totalStaked","type":"uint256","internalType":"uint256"},{"name":"minStakeAmount","type":"uint256","internalType":"uint256"},{"name":"maxStakeAmount","type":"uint256","internalType":"uint256"}],"stateMutability":"view"},{"type":"function","name":"poolLength","inputs":[],"outputs":[{"name":"","type":"uint256","internalType":"uint256"}],"stateMutability":"view"},{"type":"function","name":"renounceOwnership","inputs":[],"outputs":[],"stateMutability":"nonpayable"},{"type":"function","name":"rewardPerBlock","inputs":[],"outputs":[{"name":"","type":"uint256","internalType":"uint256"}],"stateMutability":"view"},{"type":"function","name":"rewardToken","inputs":[],"outputs":[{"name":"","type":"address","internalType":"contract IERC20"}],"stateMutability":"view"},{"type":"function","name":"setPool","inputs":[{"name":"_pid","type":"uint256","internalType":"uint256"},{"name":"_allocPoint","type":"uint256","internalType":"uint256"},{"name":"_withUpdate","type":"bool","internalType":"bool"}],"outputs":[],"stateMutability":"nonpayable"},{"type":"function","name":"startBlock","inputs":[],"outputs":[{"name":"","type":"uint256","internalType":"uint256"}],"stateMutability":"view"},{"type":"function","name":"totalAllocPoint","inputs":[],"outputs":[{"name":"","type":"uint256","internalType":"uint256"}],"stateMutability":"view"},{"type":"function","name":"transferOwnership","inputs":[{"name":"newOwner","type":"address","internalType":"address"}],"outputs":[],"stateMutability":"nonpayable"},{"type":"function","name":"unpause","inputs":[],"outputs":[],"stateMutability":"nonpayable"},{"type":"function","name":"updatePool","inputs":[{"name":"_pid","type":"uint256","internalType":"uint256"}],"outputs":[],"stateMutability":"nonpayable"},{"type":"function","name":"updateRewardPerBlock","inputs":[{"name":"_rewardPerBlock","type":"uint256","internalType":"uint256"}],"outputs":[],"stateMutability":"nonpayable"},{"type":"function","name":"userInfo","inputs":[{"name":"","type":"uint256","internalType":"uint256"},{"name":"","type":"address","internalType":"address"}],"outputs":[{"name":"amount","type":"uint256","internalType":"uint256"},{"name":"rewardDebt","type":"uint256","internalType":"uint256"},{"name":"pendingRewards","type":"uint256","internalType":"uint256"},{"name":"lastStakeTime","type":"uint256","internalType":"uint256"}],"stateMutability":"view"},{"type":"function","name":"withdraw","inputs":[{"name":"_pid","type":"uint256","internalType":"uint256"},{"name":"_amount","type":"uint256","internalType":"uint256"}],"outputs":[],"stateMutability":"nonpayable"},{"type":"event","name":"Deposit","inputs":[{"name":"user","type":"address","indexed":true,"internalType":"address"},{"name":"pid","type":"uint256","indexed":true,"internalType":"uint256"},{"name":"amount","type":"uint256","indexed":false,"internalType":"uint256"}],"anonymous":false},{"type":"event","name":"EmergencyWithdraw","inputs":[{"name":"user","type":"address","indexed":true,"internalType":"address"},{"name":"pid","type":"uint256","indexed":true,"internalType":"uint256"},{"name":"amount","type":"uint256","indexed":false,"internalType":"uint256"}],"anonymous":false},{"type":"event","name":"OwnershipTransferred","inputs":[{"name":"previousOwner","type":"address","indexed":true,"internalType":"address"},{"name":"newOwner","type":"address","indexed":true,"internalType":"address"}],"anonymous":false},{"type":"event","name":"Paused","inputs":[{"name":"account","type":"address","indexed":false,"internalType":"address"}],"anonymous":false},{"type":"event","name":"RewardPaid","inputs":[{"name":"user","type":"address","indexed":true,"internalType":"address"},{"name":"pid","type":"uint256","indexed":true,"internalType":"uint256"},{"name":"amount","type":"uint256","indexed":false,"internalType":"uint256"}],"anonymous":false},{"type":"event","name":"Unpaused","inputs":[{"name":"account","type":"address","indexed":false,"internalType":"address"}],"anonymous":false},{"type":"event","name":"Withdraw","inputs":[{"name":"user","type":"address","indexed":true,"internalType":"address"},{"name":"pid","type":"uint256","indexed":true,"internalType":"uint256"},{"name":"amount","type":"uint256","indexed":false,"internalType":"uint256"}],"anonymous":false}],"bytecode":{"object":"0x60806040525f600855348015610013575f5ffd5b50604051612bf6380380612bf68339818101604052810190610035919061023a565b6100516100466100d060201b60201c565b6100d760201b60201c565b600180819055505f60025f6101000a81548160ff02191690831515021790555083600260016101000a81548173ffffffffffffffffffffffffffffffffffffffff021916908373ffffffffffffffffffffffffffffffffffffffff1602179055508260038190555081600481905550806005819055505050505061029e565b5f33905090565b5f5f5f9054906101000a900473ffffffffffffffffffffffffffffffffffffffff169050815f5f6101000a81548173ffffffffffffffffffffffffffffffffffffffff021916908373ffffffffffffffffffffffffffffffffffffffff1602179055508173ffffffffffffffffffffffffffffffffffffffff168173ffffffffffffffffffffffffffffffffffffffff167f8be0079c531659141344cd1fd0a4f28419497f9722a3daafe3b4186f6b6457e060405160405180910390a35050565b5f5ffd5b5f73ffffffffffffffffffffffffffffffffffffffff82169050919050565b5f6101c58261019c565b9050919050565b5f6101d6826101bb565b9050919050565b6101e6816101cc565b81146101f0575f5ffd5b50565b5f81519050610201816101dd565b92915050565b5f819050919050565b61021981610207565b8114610223575f5ffd5b50565b5f8151905061023481610210565b92915050565b5f5f5f5f6080858703121561025257610251610198565b5b5f61025f878288016101f3565b945050602061027087828801610226565b935050604061028187828801610226565b925050606061029287828801610226565b91505092959194509250565b61294b806102ab5f395ff3fe608060405234801561000f575f5ffd5b50600436106101c2575f3560e01c80635c975abb116100f75780638dbb1e3a11610095578063ddc632621161006f578063ddc63262146104b8578063e2bbb158146104d4578063f2fde38b146104f0578063f7c618c11461050c576101c2565b80638dbb1e3a1461042557806393f1a40b1461045557806398969e8214610488576101c2565b80638456cb59116100d15780638456cb59146103c15780638aa28550146103cb5780638ae39cac146103e95780638da5cb5b14610407576101c2565b80635c975abb1461038f578063630b5ba1146103ad578063715018a6146103b7576101c2565b80633f4ba83a1161016457806346ca6bea1161013e57806346ca6bea1461031d57806348cd4cb11461033957806351eb05a6146103575780635312ea8e14610373576101c2565b80633f4ba83a146102db57806343aec3a7146102e5578063441a3e7014610301576101c2565b80631526fe27116101a05780631526fe271461023357806317caf6f1146102695780631aed6553146102875780632f380b35146102a5576101c2565b806301f8a976146101c6578063081e3eda146101e25780631069f3b514610200575b5f5ffd5b6101e060048036038101906101db9190611c9d565b61052a565b005b6101ea610544565b6040516101f79190611cd7565b60405180910390f35b61021a60048036038101906102159190611d4a565b610550565b60405161022a9493929190611d88565b60405180910390f35b61024d60048036038101906102489190611c9d565b6105c8565b6040516102609796959493929190611e26565b60405180910390f35b610271610634565b60405161027e9190611cd7565b60405180910390f35b61028f61063a565b60405161029c9190611cd7565b60405180910390f35b6102bf60048036038101906102ba9190611c9d565b610640565b6040516102d29796959493929190611ea2565b60405180910390f35b6102e36106c5565b005b6102ff60048036038101906102fa9190611f7f565b6106d7565b005b61031b60048036038101906103169190611ff6565b610813565b005b61033760048036038101906103329190612034565b610a8f565b005b610341610b15565b60405161034e9190611cd7565b60405180910390f35b610371600480360381019061036c9190611c9d565b610b1b565b005b61038d60048036038101906103889190611c9d565b610bf0565b005b610397610d4d565b6040516103a49190612093565b60405180910390f35b6103b5610d62565b005b6103bf610d90565b005b6103c9610da3565b005b6103d3610db5565b6040516103e09190611cd7565b60405180910390f35b6103f1610dba565b6040516103fe9190611cd7565b60405180910390f35b61040f610dc0565b60405161041c91906120ac565b60405180910390f35b61043f600480360381019061043a9190611ff6565b610de7565b60405161044c9190611cd7565b60405180910390f35b61046f600480360381019061046a9190611d4a565b610e67565b60405161047f9493929190611d88565b60405180910390f35b6104a2600480360381019061049d9190611d4a565b610e9e565b6040516104af9190611cd7565b60405180910390f35b6104d260048036038101906104cd9190611c9d565b610fec565b005b6104ee60048036038101906104e99190611ff6565b611157565b005b61050a600480360381019061050591906120c5565b6113e6565b005b610514611468565b60405161052191906120f0565b60405180910390f35b61053261148e565b61053a610d62565b8060038190555050565b5f600680549050905090565b5f5f5f5f5f60075f8881526020019081526020015f205f8773ffffffffffffffffffffffffffffffffffffffff1673ffffffffffffffffffffffffffffffffffffffff1681526020019081526020015f209050805f015481600101548260020154836003015494509450945094505092959194509250565b600681815481106105d7575f80fd5b905f5260205f2090600702015f91509050805f015f9054906101000a900473ffffffffffffffffffffffffffffffffffffffff16908060010154908060020154908060030154908060040154908060050154908060060154905087565b60085481565b60055481565b5f5f5f5f5f5f5f5f6006898154811061065c5761065b612109565b5b905f5260205f2090600702019050805f015f9054906101000a900473ffffffffffffffffffffffffffffffffffffffff16816001015482600201548360030154846004015485600501548660060154975097509750975097509750975050919395979092949650565b6106cd61148e565b6106d561150c565b565b6106df61148e565b80156106ee576106ed610d62565b5b5f600454431161070057600454610702565b435b9050856008546107129190612163565b60088190555060066040518060e001604052808773ffffffffffffffffffffffffffffffffffffffff1681526020018881526020018381526020015f81526020015f815260200186815260200185815250908060018154018082558091505060019003905f5260205f2090600702015f909190919091505f820151815f015f6101000a81548173ffffffffffffffffffffffffffffffffffffffff021916908373ffffffffffffffffffffffffffffffffffffffff1602179055506020820151816001015560408201518160020155606082015181600301556080820151816004015560a0820151816005015560c082015181600601555050505050505050565b61081b61156d565b5f600683815481106108305761082f612109565b5b905f5260205f20906007020190505f60075f8581526020019081526020015f205f3373ffffffffffffffffffffffffffffffffffffffff1673ffffffffffffffffffffffffffffffffffffffff1681526020019081526020015f20905082815f015410156108d3576040517f08c379a00000000000000000000000000000000000000000000000000000000081526004016108ca906121f0565b60405180910390fd5b6108dc84610b1b565b5f8160020154826001015464e8d4a510008560030154855f0154610900919061220e565b61090a919061227c565b61091491906122ac565b61091e9190612163565b905083825f015461092f91906122ac565b825f018190555083836004015461094691906122ac565b836004018190555064e8d4a510008360030154835f0154610967919061220e565b610971919061227c565b82600101819055505f8111156109e4575f826002018190555061099433826115bc565b843373ffffffffffffffffffffffffffffffffffffffff167fd6f2c8500df5b44f11e9e48b91ff9f1b9d81bc496d55570c2b1b75bf65243f51836040516109db9190611cd7565b60405180910390a35b610a313385855f015f9054906101000a900473ffffffffffffffffffffffffffffffffffffffff1673ffffffffffffffffffffffffffffffffffffffff166117069092919063ffffffff16565b843373ffffffffffffffffffffffffffffffffffffffff167ff279e6a1f5e320cca91135676d9cb6e44ca8a08c0b88342bcdb1144f6511b56886604051610a789190611cd7565b60405180910390a3505050610a8b61178c565b5050565b610a9761148e565b8015610aa657610aa5610d62565b5b8160068481548110610abb57610aba612109565b5b905f5260205f20906007020160010154600854610ad891906122ac565b610ae29190612163565b6008819055508160068481548110610afd57610afc612109565b5b905f5260205f20906007020160010181905550505050565b60045481565b5f60068281548110610b3057610b2f612109565b5b905f5260205f209060070201905080600201544311610b4f5750610bed565b5f816004015490505f8103610b6e574382600201819055505050610bed565b5f610b7d836002015443610de7565b90505f600854846001015460035484610b96919061220e565b610ba0919061220e565b610baa919061227c565b90508264e8d4a5100082610bbe919061220e565b610bc8919061227c565b8460030154610bd79190612163565b8460030181905550438460020181905550505050505b50565b610bf861156d565b5f60068281548110610c0d57610c0c612109565b5b905f5260205f20906007020190505f60075f8481526020019081526020015f205f3373ffffffffffffffffffffffffffffffffffffffff1673ffffffffffffffffffffffffffffffffffffffff1681526020019081526020015f2090505f815f015490505f825f01819055505f82600101819055505f8260020181905550808360040154610c9b91906122ac565b8360040181905550610cf03382855f015f9054906101000a900473ffffffffffffffffffffffffffffffffffffffff1673ffffffffffffffffffffffffffffffffffffffff166117069092919063ffffffff16565b833373ffffffffffffffffffffffffffffffffffffffff167fbb757047c2b5f3974fe26b7c10f732e7bce710b0952a71082702781e62ae059583604051610d379190611cd7565b60405180910390a3505050610d4a61178c565b50565b5f60025f9054906101000a900460ff16905090565b5f60068054905090505f5f90505b81811015610d8c57610d8181610b1b565b806001019050610d70565b5050565b610d9861148e565b610da15f611795565b565b610dab61148e565b610db3611856565b565b600281565b60035481565b5f5f5f9054906101000a900473ffffffffffffffffffffffffffffffffffffffff16905090565b5f6005548211610e105760028383610dff91906122ac565b610e09919061220e565b9050610e61565b6005548310610e2c578282610e2591906122ac565b9050610e61565b60055482610e3a91906122ac565b600284600554610e4a91906122ac565b610e54919061220e565b610e5e9190612163565b90505b92915050565b6007602052815f5260405f20602052805f5260405f205f9150915050805f0154908060010154908060020154908060030154905084565b5f5f60068481548110610eb457610eb3612109565b5b905f5260205f20906007020190505f60075f8681526020019081526020015f205f8573ffffffffffffffffffffffffffffffffffffffff1673ffffffffffffffffffffffffffffffffffffffff1681526020019081526020015f2090505f826003015490505f83600401549050836002015443118015610f3457505f8114155b15610fa3575f610f48856002015443610de7565b90505f600854866001015460035484610f61919061220e565b610f6b919061220e565b610f75919061227c565b90508264e8d4a5100082610f89919061220e565b610f93919061227c565b84610f9e9190612163565b935050505b8260020154836001015464e8d4a5100084865f0154610fc2919061220e565b610fcc919061227c565b610fd691906122ac565b610fe09190612163565b94505050505092915050565b610ff461156d565b5f6006828154811061100957611008612109565b5b905f5260205f20906007020190505f60075f8481526020019081526020015f205f3373ffffffffffffffffffffffffffffffffffffffff1673ffffffffffffffffffffffffffffffffffffffff1681526020019081526020015f20905061106f83610b1b565b5f8160020154826001015464e8d4a510008560030154855f0154611093919061220e565b61109d919061227c565b6110a791906122ac565b6110b19190612163565b90505f811115611149575f826002018190555064e8d4a510008360030154835f01546110dd919061220e565b6110e7919061227c565b82600101819055506110f933826115bc565b833373ffffffffffffffffffffffffffffffffffffffff167fd6f2c8500df5b44f11e9e48b91ff9f1b9d81bc496d55570c2b1b75bf65243f51836040516111409190611cd7565b60405180910390a35b50505061115461178c565b50565b61115f61156d565b6111676118b8565b5f6006838154811061117c5761117b612109565b5b905f5260205f20906007020190505f60075f8581526020019081526020015f205f3373ffffffffffffffffffffffffffffffffffffffff1673ffffffffffffffffffffffffffffffffffffffff1681526020019081526020015f2090508160050154831015611220576040517f08c379a000000000000000000000000000000000000000000000000000000000815260040161121790612329565b60405180910390fd5b816006015483825f01546112349190612163565b1115611275576040517f08c379a000000000000000000000000000000000000000000000000000000000815260040161126c90612391565b60405180910390fd5b61127e84610b1b565b5f815f015411156112d8575f816001015464e8d4a510008460030154845f01546112a8919061220e565b6112b2919061227c565b6112bc91906122ac565b90508082600201546112ce9190612163565b8260020181905550505b611327333085855f015f9054906101000a900473ffffffffffffffffffffffffffffffffffffffff1673ffffffffffffffffffffffffffffffffffffffff16611902909392919063ffffffff16565b82815f01546113369190612163565b815f01819055504281600301819055508282600401546113569190612163565b826004018190555064e8d4a510008260030154825f0154611377919061220e565b611381919061227c565b8160010181905550833373ffffffffffffffffffffffffffffffffffffffff167f90890809c654f11d6e72a28fa60149770a0d11ec6c92319d6ceb2bb0a4ea1a15856040516113d09190611cd7565b60405180910390a350506113e261178c565b5050565b6113ee61148e565b5f73ffffffffffffffffffffffffffffffffffffffff168173ffffffffffffffffffffffffffffffffffffffff160361145c576040517f08c379a00000000000000000000000000000000000000000000000000000000081526004016114539061241f565b60405180910390fd5b61146581611795565b50565b600260019054906101000a900473ffffffffffffffffffffffffffffffffffffffff1681565b61149661198b565b73ffffffffffffffffffffffffffffffffffffffff166114b4610dc0565b73ffffffffffffffffffffffffffffffffffffffff161461150a576040517f08c379a000000000000000000000000000000000000000000000000000000000815260040161150190612487565b60405180910390fd5b565b611514611992565b5f60025f6101000a81548160ff0219169083151502179055507f5db9ee0a495bf2e6ff9c91a7834c1ba4fdd244a5e8aa4e537bd38aeae4b073aa61155661198b565b60405161156391906120ac565b60405180910390a1565b6002600154036115b2576040517f08c379a00000000000000000000000000000000000000000000000000000000081526004016115a9906124ef565b60405180910390fd5b6002600181905550565b5f600260019054906101000a900473ffffffffffffffffffffffffffffffffffffffff1673ffffffffffffffffffffffffffffffffffffffff166370a08231306040518263ffffffff1660e01b815260040161161891906120ac565b602060405180830381865afa158015611633573d5f5f3e3d5ffd5b505050506040513d601f19601f820116820180604052508101906116579190612521565b9050808211156116b3576116ae8382600260019054906101000a900473ffffffffffffffffffffffffffffffffffffffff1673ffffffffffffffffffffffffffffffffffffffff166117069092919063ffffffff16565b611701565b6117008383600260019054906101000a900473ffffffffffffffffffffffffffffffffffffffff1673ffffffffffffffffffffffffffffffffffffffff166117069092919063ffffffff16565b5b505050565b6117878363a9059cbb60e01b848460405160240161172592919061254c565b604051602081830303815290604052907bffffffffffffffffffffffffffffffffffffffffffffffffffffffff19166020820180517bffffffffffffffffffffffffffffffffffffffffffffffffffffffff83818316178352505050506119db565b505050565b60018081905550565b5f5f5f9054906101000a900473ffffffffffffffffffffffffffffffffffffffff169050815f5f6101000a81548173ffffffffffffffffffffffffffffffffffffffff021916908373ffffffffffffffffffffffffffffffffffffffff1602179055508173ffffffffffffffffffffffffffffffffffffffff168173ffffffffffffffffffffffffffffffffffffffff167f8be0079c531659141344cd1fd0a4f28419497f9722a3daafe3b4186f6b6457e060405160405180910390a35050565b61185e6118b8565b600160025f6101000a81548160ff0219169083151502179055507f62e78cea01bee320cd4e420270b5ea74000d11b0c9f74754ebdbfc544b05a2586118a161198b565b6040516118ae91906120ac565b60405180910390a1565b6118c0610d4d565b15611900576040517f08c379a00000000000000000000000000000000000000000000000000000000081526004016118f7906125bd565b60405180910390fd5b565b611985846323b872dd60e01b858585604051602401611923939291906125db565b604051602081830303815290604052907bffffffffffffffffffffffffffffffffffffffffffffffffffffffff19166020820180517bffffffffffffffffffffffffffffffffffffffffffffffffffffffff83818316178352505050506119db565b50505050565b5f33905090565b61199a610d4d565b6119d9576040517f08c379a00000000000000000000000000000000000000000000000000000000081526004016119d09061265a565b60405180910390fd5b565b5f611a3c826040518060400160405280602081526020017f5361666545524332303a206c6f772d6c6576656c2063616c6c206661696c65648152508573ffffffffffffffffffffffffffffffffffffffff16611aa19092919063ffffffff16565b90505f81511480611a5d575080806020019051810190611a5c919061268c565b5b611a9c576040517f08c379a0000000000000000000000000000000000000000000000000000000008152600401611a9390612727565b60405180910390fd5b505050565b6060611aaf84845f85611ab8565b90509392505050565b606082471015611afd576040517f08c379a0000000000000000000000000000000000000000000000000000000008152600401611af4906127b5565b60405180910390fd5b5f5f8673ffffffffffffffffffffffffffffffffffffffff168587604051611b259190612825565b5f6040518083038185875af1925050503d805f8114611b5f576040519150601f19603f3d011682016040523d82523d5f602084013e611b64565b606091505b5091509150611b7587838387611b81565b92505050949350505050565b60608315611be2575f835103611bda57611b9a85611bf5565b611bd9576040517f08c379a0000000000000000000000000000000000000000000000000000000008152600401611bd090612885565b60405180910390fd5b5b829050611bed565b611bec8383611c17565b5b949350505050565b5f5f8273ffffffffffffffffffffffffffffffffffffffff163b119050919050565b5f82511115611c295781518083602001fd5b806040517f08c379a0000000000000000000000000000000000000000000000000000000008152600401611c5d91906128f5565b60405180910390fd5b5f5ffd5b5f819050919050565b611c7c81611c6a565b8114611c86575f5ffd5b50565b5f81359050611c9781611c73565b92915050565b5f60208284031215611cb257611cb1611c66565b5b5f611cbf84828501611c89565b91505092915050565b611cd181611c6a565b82525050565b5f602082019050611cea5f830184611cc8565b92915050565b5f73ffffffffffffffffffffffffffffffffffffffff82169050919050565b5f611d1982611cf0565b9050919050565b611d2981611d0f565b8114611d33575f5ffd5b50565b5f81359050611d4481611d20565b92915050565b5f5f60408385031215611d6057611d5f611c66565b5b5f611d6d85828601611c89565b9250506020611d7e85828601611d36565b9150509250929050565b5f608082019050611d9b5f830187611cc8565b611da86020830186611cc8565b611db56040830185611cc8565b611dc26060830184611cc8565b95945050505050565b5f819050919050565b5f611dee611de9611de484611cf0565b611dcb565b611cf0565b9050919050565b5f611dff82611dd4565b9050919050565b5f611e1082611df5565b9050919050565b611e2081611e06565b82525050565b5f60e082019050611e395f83018a611e17565b611e466020830189611cc8565b611e536040830188611cc8565b611e606060830187611cc8565b611e6d6080830186611cc8565b611e7a60a0830185611cc8565b611e8760c0830184611cc8565b98975050505050505050565b611e9c81611d0f565b82525050565b5f60e082019050611eb55f83018a611e93565b611ec26020830189611cc8565b611ecf6040830188611cc8565b611edc6060830187611cc8565b611ee96080830186611cc8565b611ef660a0830185611cc8565b611f0360c0830184611cc8565b98975050505050505050565b5f611f1982611d0f565b9050919050565b611f2981611f0f565b8114611f33575f5ffd5b50565b5f81359050611f4481611f20565b92915050565b5f8115159050919050565b611f5e81611f4a565b8114611f68575f5ffd5b50565b5f81359050611f7981611f55565b92915050565b5f5f5f5f5f60a08688031215611f9857611f97611c66565b5b5f611fa588828901611c89565b9550506020611fb688828901611f36565b9450506040611fc788828901611c89565b9350506060611fd888828901611c89565b9250506080611fe988828901611f6b565b9150509295509295909350565b5f5f6040838503121561200c5761200b611c66565b5b5f61201985828601611c89565b925050602061202a85828601611c89565b9150509250929050565b5f5f5f6060848603121561204b5761204a611c66565b5b5f61205886828701611c89565b935050602061206986828701611c89565b925050604061207a86828701611f6b565b9150509250925092565b61208d81611f4a565b82525050565b5f6020820190506120a65f830184612084565b92915050565b5f6020820190506120bf5f830184611e93565b92915050565b5f602082840312156120da576120d9611c66565b5b5f6120e784828501611d36565b91505092915050565b5f6020820190506121035f830184611e17565b92915050565b7f4e487b71000000000000000000000000000000000000000000000000000000005f52603260045260245ffd5b7f4e487b71000000000000000000000000000000000000000000000000000000005f52601160045260245ffd5b5f61216d82611c6a565b915061217883611c6a565b92508282019050808211156121905761218f612136565b5b92915050565b5f82825260208201905092915050565b7f496e73756666696369656e742062616c616e63650000000000000000000000005f82015250565b5f6121da601483612196565b91506121e5826121a6565b602082019050919050565b5f6020820190508181035f830152612207816121ce565b9050919050565b5f61221882611c6a565b915061222383611c6a565b925082820261223181611c6a565b9150828204841483151761224857612247612136565b5b5092915050565b7f4e487b71000000000000000000000000000000000000000000000000000000005f52601260045260245ffd5b5f61228682611c6a565b915061229183611c6a565b9250826122a1576122a061224f565b5b828204905092915050565b5f6122b682611c6a565b91506122c183611c6a565b92508282039050818111156122d9576122d8612136565b5b92915050565b7f416d6f756e742062656c6f77206d696e696d756d0000000000000000000000005f82015250565b5f612313601483612196565b915061231e826122df565b602082019050919050565b5f6020820190508181035f83015261234081612307565b9050919050565b7f416d6f756e742065786365656473206d6178696d756d000000000000000000005f82015250565b5f61237b601683612196565b915061238682612347565b602082019050919050565b5f6020820190508181035f8301526123a88161236f565b9050919050565b7f4f776e61626c653a206e6577206f776e657220697320746865207a65726f20615f8201527f6464726573730000000000000000000000000000000000000000000000000000602082015250565b5f612409602683612196565b9150612414826123af565b604082019050919050565b5f6020820190508181035f830152612436816123fd565b9050919050565b7f4f776e61626c653a2063616c6c6572206973206e6f7420746865206f776e65725f82015250565b5f612471602083612196565b915061247c8261243d565b602082019050919050565b5f6020820190508181035f83015261249e81612465565b9050919050565b7f5265656e7472616e637947756172643a207265656e7472616e742063616c6c005f82015250565b5f6124d9601f83612196565b91506124e4826124a5565b602082019050919050565b5f6020820190508181035f830152612506816124cd565b9050919050565b5f8151905061251b81611c73565b92915050565b5f6020828403121561253657612535611c66565b5b5f6125438482850161250d565b91505092915050565b5f60408201905061255f5f830185611e93565b61256c6020830184611cc8565b9392505050565b7f5061757361626c653a20706175736564000000000000000000000000000000005f82015250565b5f6125a7601083612196565b91506125b282612573565b602082019050919050565b5f6020820190508181035f8301526125d48161259b565b9050919050565b5f6060820190506125ee5f830186611e93565b6125fb6020830185611e93565b6126086040830184611cc8565b949350505050565b7f5061757361626c653a206e6f74207061757365640000000000000000000000005f82015250565b5f612644601483612196565b915061264f82612610565b602082019050919050565b5f6020820190508181035f83015261267181612638565b9050919050565b5f8151905061268681611f55565b92915050565b5f602082840312156126a1576126a0611c66565b5b5f6126ae84828501612678565b91505092915050565b7f5361666545524332303a204552433230206f7065726174696f6e20646964206e5f8201527f6f74207375636365656400000000000000000000000000000000000000000000602082015250565b5f612711602a83612196565b915061271c826126b7565b604082019050919050565b5f6020820190508181035f83015261273e81612705565b9050919050565b7f416464726573733a20696e73756666696369656e742062616c616e636520666f5f8201527f722063616c6c0000000000000000000000000000000000000000000000000000602082015250565b5f61279f602683612196565b91506127aa82612745565b604082019050919050565b5f6020820190508181035f8301526127cc81612793565b9050919050565b5f81519050919050565b5f81905092915050565b8281835e5f83830152505050565b5f6127ff826127d3565b61280981856127dd565b93506128198185602086016127e7565b80840191505092915050565b5f61283082846127f5565b915081905092915050565b7f416464726573733a2063616c6c20746f206e6f6e2d636f6e74726163740000005f82015250565b5f61286f601d83612196565b915061287a8261283b565b602082019050919050565b5f6020820190508181035f83015261289c81612863565b9050919050565b5f81519050919050565b5f601f19601f8301169050919050565b5f6128c7826128a3565b6128d18185612196565b93506128e18185602086016127e7565b6128ea816128ad565b840191505092915050565b5f6020820190508181035f83015261290d81846128bd565b90509291505056fea264697066735822122083fdd6c8abc7dffe50e51a768d09cbda02b3583c1aae9accc94a157e70ba0b4064736f6c634300081e0033","linkReferences":{}},"methodIdentifiers":{"BONUS_MULTIPLIER()":"8aa28550","addPool(uint256,address,uint256,uint256,bool)":"43aec3a7","bonusEndBlock()":"1aed6553","deposit(uint256,uint256)":"e2bbb158","emergencyWithdraw(uint256)":"5312ea8e","getMultiplier(uint256,uint256)":"8dbb1e3a","getPoolInfo(uint256)":"2f380b35","getUserInfo(uint256,address)":"1069f3b5","harvest(uint256)":"ddc63262","massUpdatePools()":"630b5ba1","owner()":"8da5cb5b","pause()":"8456cb59","paused()":"5c975abb","pendingReward(uint256,address)":"98969e82","poolInfo(uint256)":"1526fe27","poolLength()":"081e3eda","renounceOwnership()":"715018a6","rewardPerBlock()":"8ae39cac","rewardToken()":"f7c618c1","setPool(uint256,uint256,bool)":"46ca6bea","startBlock()":"48cd4cb1","totalAllocPoint()":"17caf6f1","transferOwnership(address)":"f2fde38b","unpause()":"3f4ba83a","updatePool(uint256)":"51eb05a6","updateRewardPerBlock(uint256)":"01f8a976","userInfo(uint256,address)":"93f1a40b","withdraw(uint256,uint256)":"441a3e70"},"id":31}